{
  "contractName": "Website",
  "abi": [
    {
      "constant": true,
      "inputs": [
        {
          "name": "",
          "type": "address"
        }
      ],
      "name": "silos",
      "outputs": [
        {
          "components": [
            {
              "name": "mail",
              "type": "string"
            },
            {
              "name": "password",
              "type": "string"
            },
            {
              "name": "account",
              "type": "address"
            },
            {
              "name": "cid",
              "type": "string"
            },
            {
              "name": "role",
              "type": "string"
            },
            {
              "name": "status",
              "type": "string"
            }
          ],
          "name": "user",
          "type": "tuple"
        },
        {
          "name": "location",
          "type": "string"
        },
        {
          "name": "capacity",
          "type": "uint32"
        },
        {
          "name": "quantity",
          "type": "uint32"
        }
      ],
      "payable": false,
      "stateMutability": "view",
      "type": "function"
    },
    {
      "constant": true,
      "inputs": [
        {
          "name": "",
          "type": "address"
        }
      ],
      "name": "farmers",
      "outputs": [
        {
          "components": [
            {
              "name": "mail",
              "type": "string"
            },
            {
              "name": "password",
              "type": "string"
            },
            {
              "name": "account",
              "type": "address"
            },
            {
              "name": "cid",
              "type": "string"
            },
            {
              "name": "role",
              "type": "string"
            },
            {
              "name": "status",
              "type": "string"
            }
          ],
          "name": "user",
          "type": "tuple"
        },
        {
          "name": "name",
          "type": "string"
        },
        {
          "name": "number",
          "type": "uint32"
        },
        {
          "name": "location",
          "type": "string"
        }
      ],
      "payable": false,
      "stateMutability": "view",
      "type": "function"
    },
    {
      "constant": true,
      "inputs": [
        {
          "name": "",
          "type": "uint256"
        }
      ],
      "name": "transportations",
      "outputs": [
        {
          "name": "farmer",
          "type": "address"
        },
        {
          "name": "transporter",
          "type": "address"
        },
        {
          "name": "silo",
          "type": "address"
        },
        {
          "name": "isRated",
          "type": "bool"
        },
        {
          "name": "weight",
          "type": "uint32"
        },
        {
          "name": "status",
          "type": "string"
        },
        {
          "name": "date",
          "type": "string"
        },
        {
          "name": "pickUpDate",
          "type": "string"
        },
        {
          "name": "deliviredDate",
          "type": "string"
        },
        {
          "name": "ssiHash",
          "type": "string"
        },
        {
          "name": "rating",
          "type": "uint8"
        }
      ],
      "payable": false,
      "stateMutability": "view",
      "type": "function"
    },
    {
      "constant": true,
      "inputs": [
        {
          "name": "",
          "type": "address"
        }
      ],
      "name": "transporters",
      "outputs": [
        {
          "components": [
            {
              "name": "mail",
              "type": "string"
            },
            {
              "name": "password",
              "type": "string"
            },
            {
              "name": "account",
              "type": "address"
            },
            {
              "name": "cid",
              "type": "string"
            },
            {
              "name": "role",
              "type": "string"
            },
            {
              "name": "status",
              "type": "string"
            }
          ],
          "name": "user",
          "type": "tuple"
        },
        {
          "name": "name",
          "type": "string"
        },
        {
          "name": "licensePlate",
          "type": "string"
        },
        {
          "name": "carCapacity",
          "type": "uint32"
        },
        {
          "name": "location",
          "type": "string"
        },
        {
          "name": "rating",
          "type": "uint8"
        }
      ],
      "payable": false,
      "stateMutability": "view",
      "type": "function"
    },
    {
      "inputs": [],
      "payable": false,
      "stateMutability": "nonpayable",
      "type": "constructor"
    },
    {
      "anonymous": false,
      "inputs": [
        {
          "indexed": true,
          "name": "Address",
          "type": "address"
        },
        {
          "indexed": false,
          "name": "role",
          "type": "string"
        },
        {
          "indexed": false,
          "name": "mail",
          "type": "string"
        }
      ],
      "name": "UserAdded",
      "type": "event"
    },
    {
      "anonymous": false,
      "inputs": [
        {
          "indexed": true,
          "name": "sender",
          "type": "address"
        },
        {
          "indexed": false,
          "name": "message",
          "type": "string"
        }
      ],
      "name": "emettedEvent",
      "type": "event"
    },
    {
      "anonymous": false,
      "inputs": [
        {
          "indexed": true,
          "name": "sender",
          "type": "address"
        },
        {
          "indexed": false,
          "name": "message",
          "type": "string"
        }
      ],
      "name": "ResponseMessage",
      "type": "event"
    },
    {
      "constant": true,
      "inputs": [
        {
          "name": "email",
          "type": "string"
        },
        {
          "name": "pass",
          "type": "string"
        }
      ],
      "name": "verify",
      "outputs": [
        {
          "name": "",
          "type": "string"
        }
      ],
      "payable": false,
      "stateMutability": "view",
      "type": "function"
    },
    {
      "constant": false,
      "inputs": [
        {
          "components": [
            {
              "components": [
                {
                  "name": "mail",
                  "type": "string"
                },
                {
                  "name": "password",
                  "type": "string"
                },
                {
                  "name": "account",
                  "type": "address"
                },
                {
                  "name": "cid",
                  "type": "string"
                },
                {
                  "name": "role",
                  "type": "string"
                },
                {
                  "name": "status",
                  "type": "string"
                }
              ],
              "name": "user",
              "type": "tuple"
            },
            {
              "name": "name",
              "type": "string"
            },
            {
              "name": "number",
              "type": "uint32"
            },
            {
              "name": "location",
              "type": "string"
            },
            {
              "name": "transportations",
              "type": "uint256[]"
            }
          ],
          "name": "farmer",
          "type": "tuple[]"
        }
      ],
      "name": "addFarmers",
      "outputs": [],
      "payable": false,
      "stateMutability": "nonpayable",
      "type": "function"
    },
    {
      "constant": false,
      "inputs": [
        {
          "components": [
            {
              "components": [
                {
                  "name": "mail",
                  "type": "string"
                },
                {
                  "name": "password",
                  "type": "string"
                },
                {
                  "name": "account",
                  "type": "address"
                },
                {
                  "name": "cid",
                  "type": "string"
                },
                {
                  "name": "role",
                  "type": "string"
                },
                {
                  "name": "status",
                  "type": "string"
                }
              ],
              "name": "user",
              "type": "tuple"
            },
            {
              "name": "name",
              "type": "string"
            },
            {
              "name": "licensePlate",
              "type": "string"
            },
            {
              "name": "carCapacity",
              "type": "uint32"
            },
            {
              "name": "location",
              "type": "string"
            },
            {
              "name": "transportations",
              "type": "uint256[]"
            },
            {
              "name": "rating",
              "type": "uint8"
            }
          ],
          "name": "transporter",
          "type": "tuple[]"
        }
      ],
      "name": "addTransporters",
      "outputs": [],
      "payable": false,
      "stateMutability": "nonpayable",
      "type": "function"
    },
    {
      "constant": false,
      "inputs": [
        {
          "components": [
            {
              "components": [
                {
                  "name": "mail",
                  "type": "string"
                },
                {
                  "name": "password",
                  "type": "string"
                },
                {
                  "name": "account",
                  "type": "address"
                },
                {
                  "name": "cid",
                  "type": "string"
                },
                {
                  "name": "role",
                  "type": "string"
                },
                {
                  "name": "status",
                  "type": "string"
                }
              ],
              "name": "user",
              "type": "tuple"
            },
            {
              "name": "location",
              "type": "string"
            },
            {
              "name": "capacity",
              "type": "uint32"
            },
            {
              "name": "quantity",
              "type": "uint32"
            },
            {
              "name": "transportations",
              "type": "uint256[]"
            }
          ],
          "name": "silo",
          "type": "tuple[]"
        }
      ],
      "name": "addSilos",
      "outputs": [],
      "payable": false,
      "stateMutability": "nonpayable",
      "type": "function"
    },
    {
      "constant": true,
      "inputs": [],
      "name": "getFarmers",
      "outputs": [
        {
          "name": "",
          "type": "address[]"
        }
      ],
      "payable": false,
      "stateMutability": "view",
      "type": "function"
    },
    {
      "constant": true,
      "inputs": [],
      "name": "getTransporters",
      "outputs": [
        {
          "name": "",
          "type": "address[]"
        }
      ],
      "payable": false,
      "stateMutability": "view",
      "type": "function"
    },
    {
      "constant": true,
      "inputs": [],
      "name": "getSilos",
      "outputs": [
        {
          "name": "",
          "type": "address[]"
        }
      ],
      "payable": false,
      "stateMutability": "view",
      "type": "function"
    },
    {
      "constant": false,
      "inputs": [
        {
          "name": "cid",
          "type": "string"
        },
        {
          "name": "role",
          "type": "string"
        }
      ],
      "name": "addCid",
      "outputs": [],
      "payable": false,
      "stateMutability": "nonpayable",
      "type": "function"
    },
    {
      "constant": false,
      "inputs": [
        {
          "name": "newPassword",
          "type": "string"
        },
        {
          "name": "oldPassword",
          "type": "string"
        },
        {
          "name": "role",
          "type": "string"
        }
      ],
      "name": "changePassword",
      "outputs": [
        {
          "name": "",
          "type": "string"
        }
      ],
      "payable": false,
      "stateMutability": "nonpayable",
      "type": "function"
    },
    {
      "constant": false,
      "inputs": [
        {
          "name": "status",
          "type": "string"
        },
        {
          "name": "role",
          "type": "string"
        },
        {
          "name": "userAddress",
          "type": "address"
        }
      ],
      "name": "changeStatus",
      "outputs": [],
      "payable": false,
      "stateMutability": "nonpayable",
      "type": "function"
    },
    {
      "constant": false,
      "inputs": [
        {
          "components": [
            {
              "name": "farmer",
              "type": "address"
            },
            {
              "name": "transporter",
              "type": "address"
            },
            {
              "name": "silo",
              "type": "address"
            },
            {
              "name": "isRated",
              "type": "bool"
            },
            {
              "name": "weight",
              "type": "uint32"
            },
            {
              "name": "status",
              "type": "string"
            },
            {
              "name": "date",
              "type": "string"
            },
            {
              "name": "pickUpDate",
              "type": "string"
            },
            {
              "name": "deliviredDate",
              "type": "string"
            },
            {
              "name": "ssiHash",
              "type": "string"
            },
            {
              "name": "rating",
              "type": "uint8"
            }
          ],
          "name": "transportation",
          "type": "tuple"
        }
      ],
      "name": "addTransportation",
      "outputs": [],
      "payable": false,
      "stateMutability": "nonpayable",
      "type": "function"
    },
    {
      "constant": false,
      "inputs": [
        {
          "name": "status",
          "type": "string"
        },
        {
          "name": "id",
          "type": "uint256"
        }
      ],
      "name": "changeTransportationStatus",
      "outputs": [],
      "payable": false,
      "stateMutability": "nonpayable",
      "type": "function"
    },
    {
      "constant": false,
      "inputs": [
        {
          "name": "hash",
          "type": "string"
        },
        {
          "name": "id",
          "type": "uint256"
        }
      ],
      "name": "transportationHash",
      "outputs": [],
      "payable": false,
      "stateMutability": "nonpayable",
      "type": "function"
    },
    {
      "constant": false,
      "inputs": [
        {
          "name": "rating",
          "type": "uint8"
        },
        {
          "name": "id",
          "type": "uint256"
        }
      ],
      "name": "rateTransportation",
      "outputs": [],
      "payable": false,
      "stateMutability": "nonpayable",
      "type": "function"
    },
    {
      "constant": true,
      "inputs": [
        {
          "name": "farmerAddress",
          "type": "address"
        }
      ],
      "name": "getFarmerTransportations",
      "outputs": [
        {
          "name": "",
          "type": "uint256[]"
        }
      ],
      "payable": false,
      "stateMutability": "view",
      "type": "function"
    },
    {
      "constant": true,
      "inputs": [
        {
          "name": "transporterAddress",
          "type": "address"
        }
      ],
      "name": "getTransporterTransportations",
      "outputs": [
        {
          "name": "",
          "type": "uint256[]"
        }
      ],
      "payable": false,
      "stateMutability": "view",
      "type": "function"
    },
    {
      "constant": true,
      "inputs": [
        {
          "name": "siloAddress",
          "type": "address"
        }
      ],
      "name": "getSiloTransportations",
      "outputs": [
        {
          "name": "",
          "type": "uint256[]"
        }
      ],
      "payable": false,
      "stateMutability": "view",
      "type": "function"
    },
    {
      "constant": false,
      "inputs": [
        {
          "name": "date",
          "type": "string"
        },
        {
          "name": "id",
          "type": "uint256"
        }
      ],
      "name": "pickYield",
      "outputs": [],
      "payable": false,
      "stateMutability": "nonpayable",
      "type": "function"
    },
    {
      "constant": false,
      "inputs": [
        {
          "name": "date",
          "type": "string"
        },
        {
          "name": "id",
          "type": "uint256"
        }
      ],
      "name": "transportYield",
      "outputs": [],
      "payable": false,
      "stateMutability": "nonpayable",
      "type": "function"
    }
  ],
  "bytecode": "0x608060405260008054600160a060020a0319167336791a5fea70814e9e9ab1d6a03f623c2386cd041790553480156200003757600080fd5b506040805161010081018252600f60c082019081527f61646d696e40676d61696c2e636f6d000000000000000000000000000000000060e0830152815281518083018352600881527f3132333435363738000000000000000000000000000000000000000000000000602082810191909152808301919091527336791a5fea70814e9e9ab1d6a03f623c2386cd04828401528251808201845260008152606083015282518084018452600581527f41646d696e0000000000000000000000000000000000000000000000000000008183015260808301528251808401909352600683527f41637469766500000000000000000000000000000000000000000000000000008382015260a08201929092528051805191926002926200015f928492019062000c2c565b5060208281015180516200017a926001850192019062000c2c565b506040820151600282018054600160a060020a031916600160a060020a0390921691909117905560608201518051620001be91600384019160209091019062000c2c565b5060808201518051620001dc91600484019160209091019062000c2c565b5060a08201518051620001fa91600584019160209091019062000c2c565b505060006001818155604080518082018252601381527f6578616d706c65406578616d706c652e636f6d0000000000000000000000000060208083019190915282518084018452600381527f3132330000000000000000000000000000000000000000000000000000000000818301528351808301855286815284518086018652600481527f53666178000000000000000000000000000000000000000000000000000000008185015285518087018752600a81527f4661726d65724e616d65000000000000000000000000000000000000000000008186015286518088018852600f81527f5472616e73706f727465724e616d650000000000000000000000000000000000818701528751808901895260068082527f414243313233000000000000000000000000000000000000000000000000000082890152895161016081018b5260a081018a815260c082018990527365ef61531c2e8ce187242ae42e39ad225e56346e60e083015261010082018890528b51808d018d529283527f4661726d65720000000000000000000000000000000000000000000000000000838b01526101208201929092528a51808c018c52600981527f4163746976617465640000000000000000000000000000000000000000000000818b0152610140820152908152808801849052613039818b01819052606082018690528a518d8152988901909a52979b50949993989297919691959094936103e89392611388926109c4926080830191905090527365ef61531c2e8ce187242ae42e39ad225e56346e600052600860209081528151805180517f5c335af91cc2e8deb7daf855ce5c0bd2c3ef6d412c695041991bf0c82bdb1c6593849262000481928492919091019062000c2c565b5060208281015180516200049c926001850192019062000c2c565b506040820151600282018054600160a060020a031916600160a060020a0390921691909117905560608201518051620004e091600384019160209091019062000c2c565b5060808201518051620004fe91600484019160209091019062000c2c565b5060a082015180516200051c91600584019160209091019062000c2c565b505050602082810151805162000539926006850192019062000c2c565b50604082015160078201805463ffffffff191663ffffffff909216919091179055606082015180516200057791600884019160209091019062000c2c565b50608082015180516200059591600984019160209091019062000cb1565b5050600980546001810182556000919091527f6e1540171b6c0c960b71a7020d9f60077f6af931a8bbf590da0223dacf75c7af018054600160a060020a0319167365ef61531c2e8ce187242ae42e39ad225e56346e90811790915560405190915060008051602062005e2f83398151915290620006129062000dc8565b60405180910390a2604080516101a08101825260e081018e815261010082018e905273d3ef445fc804e207f640b8538fd9a02a9783f8d3610120830181905261014083018e905283518085018552600b81527f5472616e73706f7274657200000000000000000000000000000000000000000060208083019190915261016085019190915284518086018652600981527f4163746976617465640000000000000000000000000000000000000000000000818301526101808501529183528183018a905282840189905263ffffffff88166060840152608083018d90528351600080825281840190955260a084015260ff871660c0840152909252600a825280518051805192937f8443dd6c18288056a98cff0ddb13d63df892340b1fd2146ad585669858b9a2949384926200074d92849291019062000c2c565b50602082810151805162000768926001850192019062000c2c565b506040820151600282018054600160a060020a031916600160a060020a0390921691909117905560608201518051620007ac91600384019160209091019062000c2c565b5060808201518051620007ca91600484019160209091019062000c2c565b5060a08201518051620007e891600584019160209091019062000c2c565b505050602082810151805162000805926006850192019062000c2c565b50604082015180516200082391600784019160209091019062000c2c565b50606082015160088201805463ffffffff191663ffffffff909216919091179055608082015180516200086191600984019160209091019062000c2c565b5060a082015180516200087f91600a84019160209091019062000cb1565b5060c09190910151600b918201805460ff191660ff90921691909117905580546001810182556000919091527f0175b7a638427703f0dbe7bb9bbf987a2551717b34e79f33b5b1008d1fa01db901805473d3ef445fc804e207f640b8538fd9a02a9783f8d3600160a060020a0319909116811790915560405160008051602062005e2f83398151915290620009149062000db6565b60405180910390a2604080516101608101825260a081018e815260c082018e905273954fa63c60a3676507de18073c1fc69d0ca4087660e0830181905261010083018e905283518085018552600481527f53696c6f0000000000000000000000000000000000000000000000000000000060208083019190915261012085019190915284518086018652600981527f41637469766174656400000000000000000000000000000000000000000000008183015261014085015291835283518085018552601281527f5b33332e383831352c2031302e303938325d0000000000000000000000000000818401528284015263ffffffff8681168486015285166060840152835160008082528184019095526080840152909252600c825280518051805192937f7e623b3363e337199b0503db25dae918775cebc2e138afef7e2d3e77897e949393849262000a6c92849291019062000c2c565b50602082810151805162000a87926001850192019062000c2c565b506040820151600282018054600160a060020a031916600160a060020a039092169190911790556060820151805162000acb91600384019160209091019062000c2c565b506080820151805162000ae991600484019160209091019062000c2c565b5060a0820151805162000b0791600584019160209091019062000c2c565b505050602082810151805162000b24926006850192019062000c2c565b506040820151600782018054606085015163ffffffff9081166401000000000267ffffffff00000000199190941663ffffffff1990921691909117169190911790556080820151805162000b8391600884019160209091019062000cb1565b505060405173954fa63c60a3676507de18073c1fc69d0ca40876915060008051602062005e2f8339815191529062000bbb9062000d9e565b60405180910390a25050600d80546001810182556000919091527fd7b6990105719101dabeb77144f2a3385c8033acd3af97e9423a695e81ad1eb5018054600160a060020a03191673954fa63c60a3676507de18073c1fc69d0ca408761790555062000dda98505050505050505050565b828054600181600116156101000203166002900490600052602060002090601f016020900481019282601f1062000c6f57805160ff191683800117855562000c9f565b8280016001018555821562000c9f579182015b8281111562000c9f57825182559160200191906001019062000c82565b5062000cad92915062000cee565b5090565b82805482825590600052602060002090810192821562000c9f579160200282018281111562000c9f57825182559160200191906001019062000c82565b62000d0b91905b8082111562000cad576000815560010162000cf5565b90565b601781527f53696c6f206164646564207375636365737366756c6c79000000000000000000602082015260400190565b601e81527f5472616e73706f72746572206164646564207375636365737366756c6c790000602082015260400190565b601981527f4661726d6572206164646564207375636365737366756c6c7900000000000000602082015260400190565b6020808252810162000db08162000d0e565b92915050565b6020808252810162000db08162000d3e565b6020808252810162000db08162000d6e565b6150458062000dea6000396000f3fe60806040526004361061012b577c010000000000000000000000000000000000000000000000000000000060003504624f4cb281146101305780630d94819914610166578063244d5242146101965780632fc17402146101b857806335ba06b2146101d8578063396cb6ef146101fa578063401b21681461021a578063589739781461024a57806358d59e591461026a578063691fbed51461028a57806372968670146102aa578063789f8d40146102e157806390f353c8146102f657806393202a9d146103165780639deb17f514610336578063a157e30314610363578063a715b4db14610383578063aecc90cb146103a3578063c11a92d8146103b8578063d0c41eea146103d8578063e25bd158146103f8578063e8295feb1461042a578063f05f31fc1461044a575b600080fd5b34801561013c57600080fd5b5061015061014b36600461440a565b61046a565b60405161015d9190614c9d565b60405180910390f35b34801561017257600080fd5b5061018661018136600461440a565b6104d9565b60405161015d9493929190614e83565b3480156101a257600080fd5b506101b66101b1366004614685565b6108a3565b005b3480156101c457600080fd5b506101b66101d3366004614430565b610b25565b3480156101e457600080fd5b506101ed610e76565b60405161015d9190614c8c565b34801561020657600080fd5b506101b661021536600461463e565b610ed9565b34801561022657600080fd5b5061023a61023536600461440a565b610fa1565b60405161015d9493929190614e33565b34801561025657600080fd5b506101b66102653660046144cf565b6113f1565b34801561027657600080fd5b506101b661028536600461463e565b6116a0565b34801561029657600080fd5b506101b66102a5366004614538565b611763565b3480156102b657600080fd5b506102ca6102c53660046146ba565b61193d565b60405161015d9b9a99989796959493929190614bc5565b3480156102ed57600080fd5b506101ed611c86565b34801561030257600080fd5b506101b661031136600461449a565b611d14565b34801561032257600080fd5b506101b66103313660046146d8565b612095565b34801561034257600080fd5b506103566103513660046144cf565b612166565b60405161015d9190614cae565b34801561036f57600080fd5b5061015061037e36600461440a565b6128cb565b34801561038f57600080fd5b506101b661039e366004614465565b612938565b3480156103af57600080fd5b506101ed612c8a565b3480156103c457600080fd5b506101506103d336600461440a565b612cea565b3480156103e457600080fd5b506101b66103f336600461463e565b612d57565b34801561040457600080fd5b5061041861041336600461440a565b612e36565b60405161015d96959493929190614dbf565b34801561043657600080fd5b506101b661044536600461463e565b61331f565b34801561045657600080fd5b506103566104653660046145b4565b6133ec565b600160a060020a0381166000908152600860209081526040918290206009018054835181840281018401909452808452606093928301828280156104cd57602002820191906000526020600020905b8154815260200190600101908083116104b9575b50505050509050919050565b600c602090815260009182526040918290208251815460026001821615610100026000190190911604601f8101849004909302810160e090810190945260c0810183815291939092849284929091849184018282801561057a5780601f1061054f5761010080835404028352916020019161057a565b820191906000526020600020905b81548152906001019060200180831161055d57829003601f168201915b50505050508152602001600182018054600181600116156101000203166002900480601f01602080910402602001604051908101604052809291908181526020018280546001816001161561010002031660029004801561061c5780601f106105f15761010080835404028352916020019161061c565b820191906000526020600020905b8154815290600101906020018083116105ff57829003601f168201915b5050509183525050600282810154600160a060020a031660208084019190915260038401805460408051601f600019600185161561010002019093169590950491820184900484028501840181528185529094019390918301828280156106c45780601f10610699576101008083540402835291602001916106c4565b820191906000526020600020905b8154815290600101906020018083116106a757829003601f168201915b505050918352505060048201805460408051602060026001851615610100026000190190941693909304601f81018490048402820184019092528181529382019392918301828280156107585780601f1061072d57610100808354040283529160200191610758565b820191906000526020600020905b81548152906001019060200180831161073b57829003601f168201915b505050918352505060058201805460408051602060026001851615610100026000190190941693909304601f81018490048402820184019092528181529382019392918301828280156107ec5780601f106107c1576101008083540402835291602001916107ec565b820191906000526020600020905b8154815290600101906020018083116107cf57829003601f168201915b5050509190925250505060068201805460408051602060026001851615610100026000190190941693909304601f810184900484028201840190925281815293949392918301828280156108815780601f1061085657610100808354040283529160200191610881565b820191906000526020600020905b81548152906001019060200180831161086457829003601f168201915b5050506007909301549192505063ffffffff8082169164010000000090041684565b33600090815260086020526040902060020154600160a060020a031615156108e95760405160e560020a62461bcd0281526004016108e090614d8f565b60405180910390fd5b6001805481018082556000908152600e602090815260409182902084518154600160a060020a03918216600160a060020a031991821617835583870151958301805496831696821696909617909555928501516002820180546060880151608089015163ffffffff1675010000000000000000000000000000000000000000000278ffffffff00000000000000000000000000000000000000000019911515740100000000000000000000000000000000000000000274ff0000000000000000000000000000000000000000199590981692909816919091179290921694909417169390931790915560a083015180518493926109ed926003850192910190613bf8565b5060c08201518051610a09916004840191602090910190613bf8565b5060e08201518051610a25916005840191602090910190613bf8565b506101008201518051610a42916006840191602090910190613bf8565b506101208201518051610a5f916007840191602090910190613bf8565b5061014091909101516008918201805460ff191660ff909216919091179055602082810151600160a060020a039081166000908152600a8084526040808320600180549190930180548085018255908552868520015586518416835285855280832082546009909101805480850182559085528685200155808701519093168252600c84528282208154950180549182018155825292902090910191909155513390600080516020614fac83398151915290610b1a90614d0f565b60405180910390a250565b600054600160a060020a03163314610b525760405160e560020a62461bcd0281526004016108e090614ccf565b60005b8151811015610e72578151600090839083908110610b6f57fe5b602090810290910101515160400151600160a060020a03161415610bc0576000600160a060020a0316600080516020614fec833981519152604051610bb390614d7f565b60405180910390a2610e6a565b6000600160a060020a0316600860008484815181101515610bdd57fe5b602090810290910181015151604090810151600160a060020a039081168452918301939093529101600020600201541614610c56578181815181101515610c2057fe5b906020019060200201516000015160400151600160a060020a0316600080516020614fec833981519152604051610bb390614d1f565b8181815181101515610c6457fe5b90602001906020020151600860008484815181101515610c8057fe5b602090810290910181015151604090810151600160a060020a03168352828201939093529101600020825180518051929391928492610cc3928492910190613bf8565b506020828101518051610cdc9260018501920190613bf8565b506040820151600282018054600160a060020a031916600160a060020a0390921691909117905560608201518051610d1e916003840191602090910190613bf8565b5060808201518051610d3a916004840191602090910190613bf8565b5060a08201518051610d56916005840191602090910190613bf8565b5050506020828101518051610d719260068501920190613bf8565b50604082015160078201805463ffffffff191663ffffffff90921691909117905560608201518051610dad916008840191602090910190613bf8565b5060808201518051610dc9916009840191602090910190613c76565b5090505060098282815181101515610ddd57fe5b60209081029190910181015151604001518254600181018455600093845291909220018054600160a060020a031916600160a060020a039092169190911790558151829082908110610e2b57fe5b906020019060200201516000015160400151600160a060020a0316600080516020614fac833981519152604051610e6190614daf565b60405180910390a25b600101610b55565b5050565b6060600b805480602002602001604051908101604052809291908181526020018280548015610ece57602002820191906000526020600020905b8154600160a060020a03168152600190910190602001808311610eb0575b505050505090505b90565b33600090815260086020526040902060020154600160a060020a0316151580610f1c5750336000908152600a6020526040902060020154600160a060020a031615155b80610f415750336000908152600c6020526040902060020154600160a060020a031615155b80610f565750600054600160a060020a031633145b1515610f775760405160e560020a62461bcd0281526004016108e090614d3f565b6000818152600e602090815260409091208351610f9c92600790920191850190613bf8565b505050565b6008602090815260009182526040918290208251815460026001821615610100026000190190911604601f8101849004909302810160e090810190945260c081018381529193909284928492909184918401828280156110425780601f1061101757610100808354040283529160200191611042565b820191906000526020600020905b81548152906001019060200180831161102557829003601f168201915b50505050508152602001600182018054600181600116156101000203166002900480601f0160208091040260200160405190810160405280929190818152602001828054600181600116156101000203166002900480156110e45780601f106110b9576101008083540402835291602001916110e4565b820191906000526020600020905b8154815290600101906020018083116110c757829003601f168201915b5050509183525050600282810154600160a060020a031660208084019190915260038401805460408051601f6000196001851615610100020190931695909504918201849004840285018401815281855290940193909183018282801561118c5780601f106111615761010080835404028352916020019161118c565b820191906000526020600020905b81548152906001019060200180831161116f57829003601f168201915b505050918352505060048201805460408051602060026001851615610100026000190190941693909304601f81018490048402820184019092528181529382019392918301828280156112205780601f106111f557610100808354040283529160200191611220565b820191906000526020600020905b81548152906001019060200180831161120357829003601f168201915b505050918352505060058201805460408051602060026001851615610100026000190190941693909304601f81018490048402820184019092528181529382019392918301828280156112b45780601f10611289576101008083540402835291602001916112b4565b820191906000526020600020905b81548152906001019060200180831161129757829003601f168201915b5050509190925250505060068201805460408051602060026001851615610100026000190190941693909304601f810184900484028201840190925281815293949392918301828280156113495780601f1061131e57610100808354040283529160200191611349565b820191906000526020600020905b81548152906001019060200180831161132c57829003601f168201915b50505050600783015460088401805460408051602060026101006001861615026000190190941693909304601f8101849004840282018401909252818152959663ffffffff90941695939450908301828280156113e75780601f106113bc576101008083540402835291602001916113e7565b820191906000526020600020905b8154815290600101906020018083116113ca57829003601f168201915b5050505050905084565b33600090815260086020526040902060020154600160a060020a03161515806114345750336000908152600a6020526040902060020154600160a060020a031615155b806114595750336000908152600c6020526040902060020154600160a060020a031615155b8061146e5750600054600160a060020a031633145b151561148f5760405160e560020a62461bcd0281526004016108e090614d3f565b60408051808201909152600681527f4661726d657200000000000000000000000000000000000000000000000000006020918201528151908201207f4473bc4cca227a6bb6678e826347a766442caaa5b58eb00db63d083b4a882e69141561154a57336000908152600860209081526040909120835161151792600390920191850190613bf8565b5033600160a060020a0316600080516020614fac83398151915260405161153d90614cff565b60405180910390a2610e72565b60408051808201909152600481527f53696c6f000000000000000000000000000000000000000000000000000000006020918201528151908201207fb1e84a976b339e956ab2452a7290af038c3003c7253647c4f3686e499e1ab8f414156115f857336000908152600c6020908152604090912083516115d292600390920191850190613bf8565b5033600160a060020a0316600080516020614fac83398151915260405161153d90614cdf565b60408051808201909152600b8152600080516020614fcc8339815191526020918201528151908201207f83eb373e8e79e78f2642774c2b64f4851337b45436f01af0c6f9f71fded359e81415610e7257336000908152600a60209081526040909120835161166e92600390920191850190613bf8565b5033600160a060020a0316600080516020614fac83398151915260405161169490614d5f565b60405180910390a25050565b33600090815260086020526040902060020154600160a060020a03161515806116e35750336000908152600a6020526040902060020154600160a060020a031615155b806117085750336000908152600c6020526040902060020154600160a060020a031615155b8061171d5750600054600160a060020a031633145b151561173e5760405160e560020a62461bcd0281526004016108e090614d3f565b6000818152600e602090815260409091208351610f9c92600390920191850190613bf8565b600054600160a060020a031633146117905760405160e560020a62461bcd0281526004016108e090614ccf565b60408051808201909152600681527f4661726d657200000000000000000000000000000000000000000000000000006020918201528251908301207f4473bc4cca227a6bb6678e826347a766442caaa5b58eb00db63d083b4a882e69141561182757600160a060020a0381166000908152600860209081526040909120845161182192600590920191860190613bf8565b50610f9c565b60408051808201909152600481527f53696c6f000000000000000000000000000000000000000000000000000000006020918201528251908301207fb1e84a976b339e956ab2452a7290af038c3003c7253647c4f3686e499e1ab8f414156118b857600160a060020a0381166000908152600c60209081526040909120845161182192600590920191860190613bf8565b60408051808201909152600b8152600080516020614fcc8339815191526020918201528251908301207f83eb373e8e79e78f2642774c2b64f4851337b45436f01af0c6f9f71fded359e81415610f9c57600160a060020a0381166000908152600a60209081526040909120845161193792600590920191860190613bf8565b50505050565b600e60209081526000918252604091829020805460018083015460028085015460038601805489516101009682161596909602600019011692909204601f8101889004880285018801909852878452600160a060020a0394851697928516969481169574010000000000000000000000000000000000000000820460ff1695750100000000000000000000000000000000000000000090920463ffffffff16949093909291830182828015611a335780601f10611a0857610100808354040283529160200191611a33565b820191906000526020600020905b815481529060010190602001808311611a1657829003601f168201915b5050505060048301805460408051602060026001851615610100026000190190941693909304601f8101849004840282018401909252818152949594935090830182828015611ac35780601f10611a9857610100808354040283529160200191611ac3565b820191906000526020600020905b815481529060010190602001808311611aa657829003601f168201915b5050505060058301805460408051602060026001851615610100026000190190941693909304601f8101849004840282018401909252818152949594935090830182828015611b535780601f10611b2857610100808354040283529160200191611b53565b820191906000526020600020905b815481529060010190602001808311611b3657829003601f168201915b5050505060068301805460408051602060026001851615610100026000190190941693909304601f8101849004840282018401909252818152949594935090830182828015611be35780601f10611bb857610100808354040283529160200191611be3565b820191906000526020600020905b815481529060010190602001808311611bc657829003601f168201915b5050505060078301805460408051602060026001851615610100026000190190941693909304601f8101849004840282018401909252818152949594935090830182828015611c735780601f10611c4857610100808354040283529160200191611c73565b820191906000526020600020905b815481529060010190602001808311611c5657829003601f168201915b5050506008909301549192505060ff168b565b600054606090600160a060020a03163314611cb65760405160e560020a62461bcd0281526004016108e090614ccf565b6009805480602002602001604051908101604052809291908181526020018280548015610ece57602002820191906000526020600020908154600160a060020a03168152600190910190602001808311610eb0575050505050905090565b600054600160a060020a03163314611d415760405160e560020a62461bcd0281526004016108e090614ccf565b60005b8151811015610e72578151600090839083908110611d5e57fe5b602090810290910101515160400151600160a060020a03161415611daf576000600160a060020a0316600080516020614fec833981519152604051611da290614d7f565b60405180910390a261208d565b6000600160a060020a0316600a60008484815181101515611dcc57fe5b602090810290910181015151604090810151600160a060020a039081168452918301939093529101600020600201541614611e45578181815181101515611e0f57fe5b906020019060200201516000015160400151600160a060020a0316600080516020614fec833981519152604051611da290614d1f565b8181815181101515611e5357fe5b90602001906020020151600a60008484815181101515611e6f57fe5b602090810290910181015151604090810151600160a060020a03168352828201939093529101600020825180518051929391928492611eb2928492910190613bf8565b506020828101518051611ecb9260018501920190613bf8565b506040820151600282018054600160a060020a031916600160a060020a0390921691909117905560608201518051611f0d916003840191602090910190613bf8565b5060808201518051611f29916004840191602090910190613bf8565b5060a08201518051611f45916005840191602090910190613bf8565b5050506020828101518051611f609260068501920190613bf8565b5060408201518051611f7c916007840191602090910190613bf8565b50606082015160088201805463ffffffff191663ffffffff90921691909117905560808201518051611fb8916009840191602090910190613bf8565b5060a08201518051611fd491600a840191602090910190613c76565b5060c09190910151600b918201805460ff191660ff909216919091179055825183908390811061200057fe5b60209081029190910181015151604001518254600181018455600093845291909220018054600160a060020a031916600160a060020a03909216919091179055815182908290811061204e57fe5b906020019060200201516000015160400151600160a060020a0316600080516020614fac83398151915260405161208490614d4f565b60405180910390a25b600101611d44565b33600090815260086020526040902060020154600160a060020a031615156120d25760405160e560020a62461bcd0281526004016108e090614d8f565b6000908152600e6020908152604080832060088101805460ff87811660ff19928316179092556002808401805474ff0000000000000000000000000000000000000000191674010000000000000000000000000000000000000000179055600190930154600160a060020a03168652600a90945291909320600b018054928316928216909401811692909204909116179055565b600454606090600160a060020a0316331480156121f557508280519060200120600260000160405180828054600181600116156101000203166002900480156121e65780601f106121c45761010080835404028352918201916121e6565b820191906000526020600020905b8154815290600101906020018083116121d2575b50509150506040518091039020145b801561227357508180519060200120600260010160405180828054600181600116156101000203166002900480156122645780601f10612242576101008083540402835291820191612264565b820191906000526020600020905b815481529060010190602001808311612250575b50509150506040518091039020145b1561230a576006805460408051602060026001851615610100026000190190941693909304601f810184900484028201840190925281815292918301828280156122fe5780601f106122d3576101008083540402835291602001916122fe565b820191906000526020600020905b8154815290600101906020018083116122e157829003601f168201915b505050505090506128c5565b33600090815260086020526040902060020154600160a060020a0316158015906123cc575082805190602001206008600033600160a060020a0316600160a060020a0316815260200190815260200160002060000160000160405180828054600181600116156101000203166002900480156123bd5780601f1061239b5761010080835404028352918201916123bd565b820191906000526020600020905b8154815290600101906020018083116123a9575b50509150506040518091039020145b8015612470575081805190602001206008600033600160a060020a0316600160a060020a0316815260200190815260200160002060000160010160405180828054600181600116156101000203166002900480156124615780601f1061243f576101008083540402835291820191612461565b820191906000526020600020905b81548152906001019060200180831161244d575b50509150506040518091039020145b156124e1573360009081526008602090815260409182902060040180548351601f6002600019610100600186161502019093169290920491820184900484028101840190945280845290918301828280156122fe5780601f106122d3576101008083540402835291602001916122fe565b336000908152600a6020526040902060020154600160a060020a0316158015906125a357508280519060200120600a600033600160a060020a0316600160a060020a0316815260200190815260200160002060000160000160405180828054600181600116156101000203166002900480156125945780601f10612572576101008083540402835291820191612594565b820191906000526020600020905b815481529060010190602001808311612580575b50509150506040518091039020145b801561264757508180519060200120600a600033600160a060020a0316600160a060020a0316815260200190815260200160002060000160010160405180828054600181600116156101000203166002900480156126385780601f10612616576101008083540402835291820191612638565b820191906000526020600020905b815481529060010190602001808311612624575b50509150506040518091039020145b156126b857336000908152600a602090815260409182902060040180548351601f6002600019610100600186161502019093169290920491820184900484028101840190945280845290918301828280156122fe5780601f106122d3576101008083540402835291602001916122fe565b336000908152600c6020526040902060020154600160a060020a03161580159061277a57508280519060200120600c600033600160a060020a0316600160a060020a03168152602001908152602001600020600001600001604051808280546001816001161561010002031660029004801561276b5780601f1061274957610100808354040283529182019161276b565b820191906000526020600020905b815481529060010190602001808311612757575b50509150506040518091039020145b801561281e57508180519060200120600c600033600160a060020a0316600160a060020a03168152602001908152602001600020600001600101604051808280546001816001161561010002031660029004801561280f5780601f106127ed57610100808354040283529182019161280f565b820191906000526020600020905b8154815290600101906020018083116127fb575b50509150506040518091039020145b1561288f57336000908152600c602090815260409182902060040180548351601f6002600019610100600186161502019093169290920491820184900484028101840190945280845290918301828280156122fe5780601f106122d3576101008083540402835291602001916122fe565b5060408051808201909152601381527f496e76616c69642063726564656e7469616c730000000000000000000000000060208201525b92915050565b600160a060020a0381166000908152600a60208181526040928390209091018054835181840281018401909452808452606093928301828280156104cd57602002820191906000526020600020908154815260200190600101908083116104b95750505050509050919050565b600054600160a060020a031633146129655760405160e560020a62461bcd0281526004016108e090614ccf565b60005b8151811015610e7257815160009083908390811061298257fe5b602090810290910101515160400151600160a060020a031614156129d3576000600160a060020a0316600080516020614fec8339815191526040516129c690614d7f565b60405180910390a2612c82565b6000600160a060020a0316600c600084848151811015156129f057fe5b602090810290910181015151604090810151600160a060020a039081168452918301939093529101600020600201541614612a69578181815181101515612a3357fe5b906020019060200201516000015160400151600160a060020a0316600080516020614fec8339815191526040516129c690614d1f565b8181815181101515612a7757fe5b90602001906020020151600c60008484815181101515612a9357fe5b602090810290910181015151604090810151600160a060020a03168352828201939093529101600020825180518051929391928492612ad6928492910190613bf8565b506020828101518051612aef9260018501920190613bf8565b506040820151600282018054600160a060020a031916600160a060020a0390921691909117905560608201518051612b31916003840191602090910190613bf8565b5060808201518051612b4d916004840191602090910190613bf8565b5060a08201518051612b69916005840191602090910190613bf8565b5050506020828101518051612b849260068501920190613bf8565b506040820151600782018054606085015163ffffffff9081166401000000000267ffffffff00000000199190941663ffffffff19909216919091171691909117905560808201518051612be1916008840191602090910190613c76565b50905050600d8282815181101515612bf557fe5b60209081029190910181015151604001518254600181018455600093845291909220018054600160a060020a031916600160a060020a039092169190911790558151829082908110612c4357fe5b906020019060200201516000015160400151600160a060020a0316600080516020614fac833981519152604051612c7990614d2f565b60405180910390a25b600101612968565b6060600d805480602002602001604051908101604052809291908181526020018280548015610ece57602002820191906000526020600020908154600160a060020a03168152600190910190602001808311610eb0575050505050905090565b600160a060020a0381166000908152600c60209081526040918290206008018054835181840281018401909452808452606093928301828280156104cd57602002820191906000526020600020908154815260200190600101908083116104b95750505050509050919050565b336000908152600a6020526040902060020154600160a060020a03161515612d945760405160e560020a62461bcd0281526004016108e090614cbf565b604080518082018252600681527f5069636b6564000000000000000000000000000000000000000000000000000060208083019182526000858152600e909152929092209051612dea9260039092019190613bf8565b506000818152600e602090815260409091208351612e1092600590920191850190613bf8565b5033600160a060020a0316600080516020614fac83398151915260405161169490614d6f565b600a602090815260009182526040918290208251815460026001821615610100026000190190911604601f8101849004909302810160e090810190945260c08101838152919390928492849290918491840182828015612ed75780601f10612eac57610100808354040283529160200191612ed7565b820191906000526020600020905b815481529060010190602001808311612eba57829003601f168201915b50505050508152602001600182018054600181600116156101000203166002900480601f016020809104026020016040519081016040528092919081815260200182805460018160011615610100020316600290048015612f795780601f10612f4e57610100808354040283529160200191612f79565b820191906000526020600020905b815481529060010190602001808311612f5c57829003601f168201915b5050509183525050600282810154600160a060020a031660208084019190915260038401805460408051601f600019600185161561010002019093169590950491820184900484028501840181528185529094019390918301828280156130215780601f10612ff657610100808354040283529160200191613021565b820191906000526020600020905b81548152906001019060200180831161300457829003601f168201915b505050918352505060048201805460408051602060026001851615610100026000190190941693909304601f81018490048402820184019092528181529382019392918301828280156130b55780601f1061308a576101008083540402835291602001916130b5565b820191906000526020600020905b81548152906001019060200180831161309857829003601f168201915b505050918352505060058201805460408051602060026001851615610100026000190190941693909304601f81018490048402820184019092528181529382019392918301828280156131495780601f1061311e57610100808354040283529160200191613149565b820191906000526020600020905b81548152906001019060200180831161312c57829003601f168201915b5050509190925250505060068201805460408051602060026001851615610100026000190190941693909304601f810184900484028201840190925281815293949392918301828280156131de5780601f106131b3576101008083540402835291602001916131de565b820191906000526020600020905b8154815290600101906020018083116131c157829003601f168201915b5050505060078301805460408051602060026001851615610100026000190190941693909304601f810184900484028201840190925281815294959493509083018282801561326e5780601f106132435761010080835404028352916020019161326e565b820191906000526020600020905b81548152906001019060200180831161325157829003601f168201915b50505050600883015460098401805460408051602060026101006001861615026000190190941693909304601f8101849004840282018401909252818152959663ffffffff909416959394509083018282801561330c5780601f106132e15761010080835404028352916020019161330c565b820191906000526020600020905b8154815290600101906020018083116132ef57829003601f168201915b505050600b909301549192505060ff1686565b336000908152600c6020526040902060020154600160a060020a0316151561335c5760405160e560020a62461bcd0281526004016108e090614d9f565b604080518082018252600b8152600080516020614fcc83398151915260208083019182526000858152600e9091529290922090516133a09260039092019190613bf8565b506000818152600e6020908152604090912083516133c692600690920191850190613bf8565b5033600160a060020a0316600080516020614fac83398151915260405161169490614cef565b33600090815260086020526040902060020154606090600160a060020a03161515806134325750336000908152600a6020526040902060020154600160a060020a031615155b806134575750336000908152600c6020526040902060020154600160a060020a031615155b8061346c5750600054600160a060020a031633145b151561348d5760405160e560020a62461bcd0281526004016108e090614d3f565b60408051808201909152600681527f4661726d657200000000000000000000000000000000000000000000000000006020918201528251908301207f4473bc4cca227a6bb6678e826347a766442caaa5b58eb00db63d083b4a882e6914156137315783805190602001206008600033600160a060020a0316600160a060020a03168152602001908152602001600020600001600101604051808280546001816001161561010002031660029004801561357d5780601f1061355b57610100808354040283529182019161357d565b820191906000526020600020905b815481529060010190602001808311613569575b5050915050604051809103902014156135f457606060405190810160405280602f81526020017f4e65772070617373776f72642063616e6e6f74206265207468652073616d652081526020017f617320746865206f6c64206f6e652e00000000000000000000000000000000008152509050613bf1565b82805190602001206008600033600160a060020a0316600160a060020a0316815260200190815260200160002060000160010160405180828054600181600116156101000203166002900480156136825780601f10613660576101008083540402835291820191613682565b820191906000526020600020905b81548152906001019060200180831161366e575b505091505060405180910390201415156136d0575060408051808201909152601381527f57726f6e67206f6c642070617373776f726421000000000000000000000000006020820152613bf1565b33600090815260086020908152604090912085516136f692600190920191870190613bf8565b505060408051808201909152601e81527f50617373776f7264206368616e676564207375636365737366756c6c792100006020820152613bf1565b60408051808201909152600481527f53696c6f000000000000000000000000000000000000000000000000000000006020918201528251908301207fb1e84a976b339e956ab2452a7290af038c3003c7253647c4f3686e499e1ab8f4141561399a578380519060200120600c600033600160a060020a0316600160a060020a0316815260200190815260200160002060000160010160405180828054600181600116156101000203166002900480156138215780601f106137ff576101008083540402835291820191613821565b820191906000526020600020905b81548152906001019060200180831161380d575b50509150506040518091039020141561389857606060405190810160405280602f81526020017f4e65772070617373776f72642063616e6e6f74206265207468652073616d652081526020017f617320746865206f6c64206f6e652e00000000000000000000000000000000008152509050613bf1565b8280519060200120600c600033600160a060020a0316600160a060020a0316815260200190815260200160002060000160010160405180828054600181600116156101000203166002900480156139265780601f10613904576101008083540402835291820191613926565b820191906000526020600020905b815481529060010190602001808311613912575b50509150506040518091039020141515613974575060408051808201909152601381527f57726f6e67206f6c642070617373776f726421000000000000000000000000006020820152613bf1565b336000908152600c6020908152604090912085516136f692600190920191870190613bf8565b60408051808201909152600b8152600080516020614fcc8339815191526020918201528251908301207f83eb373e8e79e78f2642774c2b64f4851337b45436f01af0c6f9f71fded359e81415613bf1578380519060200120600a600033600160a060020a0316600160a060020a031681526020019081526020016000206000016001016040518082805460018160011615610100020316600290048015613a785780601f10613a56576101008083540402835291820191613a78565b820191906000526020600020905b815481529060010190602001808311613a64575b505091505060405180910390201415613aef57606060405190810160405280602f81526020017f4e65772070617373776f72642063616e6e6f74206265207468652073616d652081526020017f617320746865206f6c64206f6e652e00000000000000000000000000000000008152509050613bf1565b8280519060200120600a600033600160a060020a0316600160a060020a031681526020019081526020016000206000016001016040518082805460018160011615610100020316600290048015613b7d5780601f10613b5b576101008083540402835291820191613b7d565b820191906000526020600020905b815481529060010190602001808311613b69575b50509150506040518091039020141515613bcb575060408051808201909152601381527f57726f6e67206f6c642070617373776f726421000000000000000000000000006020820152613bf1565b336000908152600a6020908152604090912085516136f692600190920191870190613bf8565b9392505050565b828054600181600116156101000203166002900490600052602060002090601f016020900481019282601f10613c3957805160ff1916838001178555613c66565b82800160010185558215613c66579182015b82811115613c66578251825591602001919060010190613c4b565b50613c72929150613cb0565b5090565b828054828255906000526020600020908101928215613c665791602002820182811115613c66578251825591602001919060010190613c4b565b610ed691905b80821115613c725760008155600101613cb6565b6000613bf18235614f3e565b6000601f82018313613ce757600080fd5b8135613cfa613cf582614eeb565b614ec4565b81815260209384019390925082018360005b83811015613d385781358601613d228882613ec7565b8452506020928301929190910190600101613d0c565b5050505092915050565b6000601f82018313613d5357600080fd5b8135613d61613cf582614eeb565b81815260209384019390925082018360005b83811015613d385781358601613d898882613fa9565b8452506020928301929190910190600101613d73565b6000601f82018313613db057600080fd5b8135613dbe613cf582614eeb565b81815260209384019390925082018360005b83811015613d385781358601613de688826141b6565b8452506020928301929190910190600101613dd0565b6000601f82018313613e0d57600080fd5b8135613e1b613cf582614eeb565b91508181835260208401935060208101905083856020840282011115613e4057600080fd5b60005b83811015613d385781613e5688826143e6565b8452506020928301929190910190600101613e43565b6000613bf18235614f49565b6000601f82018313613e8957600080fd5b8135613e97613cf582614f0c565b91508082526020830160208301858383011115613eb357600080fd5b613ebe838284614f69565b50505092915050565b600060a08284031215613ed957600080fd5b613ee360a0614ec4565b9050813567ffffffffffffffff811115613efc57600080fd5b613f08848285016142d8565b825250602082013567ffffffffffffffff811115613f2557600080fd5b613f3184828501613e78565b6020830152506040613f45848285016143f2565b604083015250606082013567ffffffffffffffff811115613f6557600080fd5b613f7184828501613e78565b606083015250608082013567ffffffffffffffff811115613f9157600080fd5b613f9d84828501613dfc565b60808301525092915050565b600060a08284031215613fbb57600080fd5b613fc560a0614ec4565b9050813567ffffffffffffffff811115613fde57600080fd5b613fea848285016142d8565b825250602082013567ffffffffffffffff81111561400757600080fd5b61401384828501613e78565b6020830152506040614027848285016143f2565b6040830152506060613f71848285016143f2565b6000610160828403121561404e57600080fd5b614059610160614ec4565b905060006140678484613cca565b825250602061407884848301613cca565b602083015250604061408c84828501613cca565b60408301525060606140a084828501613e6c565b60608301525060806140b4848285016143f2565b60808301525060a082013567ffffffffffffffff8111156140d457600080fd5b6140e084828501613e78565b60a08301525060c082013567ffffffffffffffff81111561410057600080fd5b61410c84828501613e78565b60c08301525060e082013567ffffffffffffffff81111561412c57600080fd5b61413884828501613e78565b60e08301525061010082013567ffffffffffffffff81111561415957600080fd5b61416584828501613e78565b6101008301525061012082013567ffffffffffffffff81111561418757600080fd5b61419384828501613e78565b610120830152506101406141a9848285016143fe565b6101408301525092915050565b600060e082840312156141c857600080fd5b6141d260e0614ec4565b9050813567ffffffffffffffff8111156141eb57600080fd5b6141f7848285016142d8565b825250602082013567ffffffffffffffff81111561421457600080fd5b61422084828501613e78565b602083015250604082013567ffffffffffffffff81111561424057600080fd5b61424c84828501613e78565b6040830152506060614260848285016143f2565b606083015250608082013567ffffffffffffffff81111561428057600080fd5b61428c84828501613e78565b60808301525060a082013567ffffffffffffffff8111156142ac57600080fd5b6142b884828501613dfc565b60a08301525060c06142cc848285016143fe565b60c08301525092915050565b600060c082840312156142ea57600080fd5b6142f460c0614ec4565b9050813567ffffffffffffffff81111561430d57600080fd5b61431984828501613e78565b825250602082013567ffffffffffffffff81111561433657600080fd5b61434284828501613e78565b602083015250604061435684828501613cca565b604083015250606082013567ffffffffffffffff81111561437657600080fd5b61438284828501613e78565b606083015250608082013567ffffffffffffffff8111156143a257600080fd5b6143ae84828501613e78565b60808301525060a082013567ffffffffffffffff8111156143ce57600080fd5b6143da84828501613e78565b60a08301525092915050565b6000613bf18235610ed6565b6000613bf18235614f5a565b6000613bf18235614f63565b60006020828403121561441c57600080fd5b60006144288484613cca565b949350505050565b60006020828403121561444257600080fd5b813567ffffffffffffffff81111561445957600080fd5b61442884828501613cd6565b60006020828403121561447757600080fd5b813567ffffffffffffffff81111561448e57600080fd5b61442884828501613d42565b6000602082840312156144ac57600080fd5b813567ffffffffffffffff8111156144c357600080fd5b61442884828501613d9f565b600080604083850312156144e257600080fd5b823567ffffffffffffffff8111156144f957600080fd5b61450585828601613e78565b925050602083013567ffffffffffffffff81111561452257600080fd5b61452e85828601613e78565b9150509250929050565b60008060006060848603121561454d57600080fd5b833567ffffffffffffffff81111561456457600080fd5b61457086828701613e78565b935050602084013567ffffffffffffffff81111561458d57600080fd5b61459986828701613e78565b92505060406145aa86828701613cca565b9150509250925092565b6000806000606084860312156145c957600080fd5b833567ffffffffffffffff8111156145e057600080fd5b6145ec86828701613e78565b935050602084013567ffffffffffffffff81111561460957600080fd5b61461586828701613e78565b925050604084013567ffffffffffffffff81111561463257600080fd5b6145aa86828701613e78565b6000806040838503121561465157600080fd5b823567ffffffffffffffff81111561466857600080fd5b61467485828601613e78565b925050602061452e858286016143e6565b60006020828403121561469757600080fd5b813567ffffffffffffffff8111156146ae57600080fd5b6144288482850161403b565b6000602082840312156146cc57600080fd5b600061442884846143e6565b600080604083850312156146eb57600080fd5b600061467485856143fe565b61470081614f3e565b82525050565b600061471182614f3a565b80845260208401935061472383614f34565b60005b82811015614753576147398683516146f7565b61474282614f34565b602096909601959150600101614726565b5093949350505050565b600061476882614f3a565b80845260208401935061477a83614f34565b60005b8281101561475357614790868351614baa565b61479982614f34565b60209690960195915060010161477d565b61470081614f49565b60006147be82614f3a565b8084526147d2816020860160208601614f75565b6147db81614fa1565b9093016020019392505050565b601b81527f43616c6c6572206973206e6f742061207472616e73706f727465720000000000602082015260400190565b602581527f4f6e6c79207468652061646d696e2063616e2063616c6c20746869732066756e60208201527f6374696f6e000000000000000000000000000000000000000000000000000000604082015260600190565b601481527f53696c6f2061646465642061207065726d69742e000000000000000000000000602082015260400190565b601781527f53696c6f2076616c6964617465642061205969656c642e000000000000000000602082015260400190565b601681527f4661726d65722061646465642061207065726d69742e00000000000000000000602082015260400190565b601d81527f4661726d65722061646465642061205472616e73706f726174696f6e2e000000602082015260400190565b601381527f5573657220616c72656164792065786973747300000000000000000000000000602082015260400190565b601781527f53696c6f206164646564207375636365737366756c6c79000000000000000000602082015260400190565b601881527f43616c6c6572206973206e6f7420617574686f72697a65640000000000000000602082015260400190565b601e81527f5472616e73706f72746572206164646564207375636365737366756c6c790000602082015260400190565b601b81527f5472616e73706f727465722061646465642061207065726d69742e0000000000602082015260400190565b601b81527f5472616e73706f72746572207069636b65642061205969656c642e0000000000602082015260400190565b601481527f496e76616c69642075736572206163636f756e74000000000000000000000000602082015260400190565b601681527f43616c6c6572206973206e6f742061206661726d657200000000000000000000602082015260400190565b601481527f43616c6c6572206973206e6f7420612073696c6f000000000000000000000000602082015260400190565b601981527f4661726d6572206164646564207375636365737366756c6c7900000000000000602082015260400190565b805160c080845260009190840190614b2682826147b3565b91505060208301518482036020860152614b4082826147b3565b9150506040830151614b5560408601826146f7565b5060608301518482036060860152614b6d82826147b3565b91505060808301518482036080860152614b8782826147b3565b91505060a083015184820360a0860152614ba182826147b3565b95945050505050565b61470081610ed6565b61470081614f5a565b61470081614f63565b6101608101614bd4828e6146f7565b614be1602083018d6146f7565b614bee604083018c6146f7565b614bfb606083018b6147aa565b614c08608083018a614bb3565b81810360a0830152614c1a81896147b3565b905081810360c0830152614c2e81886147b3565b905081810360e0830152614c4281876147b3565b9050818103610100830152614c5781866147b3565b9050818103610120830152614c6c81856147b3565b9050614c7c610140830184614bbc565b9c9b505050505050505050505050565b60208082528101613bf18184614706565b60208082528101613bf1818461475d565b60208082528101613bf181846147b3565b602080825281016128c5816147e8565b602080825281016128c581614818565b602080825281016128c58161486e565b602080825281016128c58161489e565b602080825281016128c5816148ce565b602080825281016128c5816148fe565b602080825281016128c58161492e565b602080825281016128c58161495e565b602080825281016128c58161498e565b602080825281016128c5816149be565b602080825281016128c5816149ee565b602080825281016128c581614a1e565b602080825281016128c581614a4e565b602080825281016128c581614a7e565b602080825281016128c581614aae565b602080825281016128c581614ade565b60c08082528101614dd08189614b0e565b90508181036020830152614de481886147b3565b90508181036040830152614df881876147b3565b9050614e076060830186614bb3565b8181036080830152614e1981856147b3565b9050614e2860a0830184614bbc565b979650505050505050565b60808082528101614e448187614b0e565b90508181036020830152614e5881866147b3565b9050614e676040830185614bb3565b8181036060830152614e7981846147b3565b9695505050505050565b60808082528101614e948187614b0e565b90508181036020830152614ea881866147b3565b9050614eb76040830185614bb3565b614ba16060830184614bb3565b60405181810167ffffffffffffffff81118282101715614ee357600080fd5b604052919050565b600067ffffffffffffffff821115614f0257600080fd5b5060209081020190565b600067ffffffffffffffff821115614f2357600080fd5b506020601f91909101601f19160190565b60200190565b5190565b60006128c582614f4e565b151590565b600160a060020a031690565b63ffffffff1690565b60ff1690565b82818337506000910152565b60005b83811015614f90578181015183820152602001614f78565b838111156119375750506000910152565b601f01601f19169056fe8c446bf47ad0bcace4a8dd998e824b507c25dc313800c5d51de2631098269d265472616e73706f727465720000000000000000000000000000000000000000003820aec32128d3aa9b6c380acce3889f6bcb0ff10acba2312beeee8f6b5dc3fba265627a7a72305820ada1c80b4a22b84f8dbfb0a7ffe82f7d6cfb51537fae168672586cdef882b9b86c6578706572696d656e74616cf500378c446bf47ad0bcace4a8dd998e824b507c25dc313800c5d51de2631098269d26",
  "source": "// SPDX-License-Identifier: MIT\r\npragma solidity >=0.4.22 <0.9.0;\r\npragma experimental ABIEncoderV2;\r\n\r\ncontract Website {\r\n    address private adminAddress = 0x36791A5FEa70814e9E9ab1d6A03F623c2386Cd04;\r\n    uint256 tid;\r\n    struct Transportation {\r\n        address farmer;\r\n        address transporter;\r\n        address silo;\r\n        bool isRated;\r\n        uint32 weight;\r\n        string status;\r\n        string date;\r\n        string pickUpDate;\r\n        string deliviredDate;\r\n        string ssiHash;\r\n        uint8 rating;\r\n    }\r\n    struct User {\r\n        string mail;\r\n        string password;\r\n        address account;\r\n        string cid;\r\n        string role;\r\n        string status;\r\n    }\r\n\r\n    struct Farmer {\r\n        User user;\r\n        string name;\r\n        uint32 number;\r\n        string location;\r\n        uint256[] transportations;\r\n    }\r\n\r\n    struct Transporter {\r\n        User user;\r\n        string name;\r\n        string licensePlate;\r\n        uint32 carCapacity;\r\n        string location;\r\n        uint256[] transportations;\r\n        uint8 rating;\r\n    }\r\n\r\n    struct Silo {\r\n        User user;\r\n        string location;\r\n        uint32 capacity;\r\n        uint32 quantity;\r\n        uint256[] transportations;\r\n    }\r\n\r\n    User private admin;\r\n    event UserAdded(address indexed Address, string role, string mail);\r\n    event emettedEvent(address indexed sender, string message);\r\n    event ResponseMessage(address indexed sender, string message);\r\n    mapping(address => Farmer) public farmers;\r\n    address[] private farmerAdd;\r\n    // event FarmerAdded(address indexed farmerAddress, string name, string mail);\r\n\r\n    mapping(address => Transporter) public transporters;\r\n    address[] private transporterAdd;\r\n    // event TransporterAdded(address indexed transporterAddress, string licensePlate, string mail);\r\n\r\n    mapping(address => Silo) public silos;\r\n    address[] private siloAdd;\r\n\r\n    mapping(uint256 => Transportation) public transportations;\r\n\r\n    // event SiloAdded(address indexed siloAddress, uint32 capacity , string mail);\r\n\r\n    constructor() public {\r\n        admin = User(\r\n            \"admin@gmail.com\",\r\n            \"12345678\",\r\n            0x36791A5FEa70814e9E9ab1d6A03F623c2386Cd04,\r\n            \"\",\r\n            \"Admin\",\r\n            \"Active\"\r\n        );\r\n        tid = 0;\r\n        string memory commonMail = \"example@example.com\";\r\n        string memory commonPassword = \"123\";\r\n        string memory commonCid = \"\";\r\n        string memory commonLocation = \"Sfax\";\r\n        string memory farmerName = \"FarmerName\";\r\n        uint32 farmerNumber = 12345;\r\n        string memory transporterName = \"TransporterName\";\r\n        string memory transporterLicensePlate = \"ABC123\";\r\n        uint32 transporterCarCapacity = 1000;\r\n        uint8 transporterRating = 1;\r\n        uint32 siloCapacity = 5000;\r\n        uint32 siloQuantity = 2500;\r\n\r\n        farmers[0x65ef61531C2E8Ce187242ae42E39AD225e56346E] = Farmer(\r\n            User(\r\n                commonMail,\r\n                commonPassword,\r\n                0x65ef61531C2E8Ce187242ae42E39AD225e56346E,\r\n                commonCid,\r\n                \"Farmer\",\r\n                \"Activated\"\r\n            ),\r\n            farmerName,\r\n            farmerNumber,\r\n            commonLocation,\r\n            new uint[](0)\r\n        );\r\n        farmerAdd.push(0x65ef61531C2E8Ce187242ae42E39AD225e56346E);\r\n        emit emettedEvent(0x65ef61531C2E8Ce187242ae42E39AD225e56346E, \"Farmer added successfully\");\r\n\r\n        // Initialize Transporter\r\n        transporters[0xd3EF445Fc804e207F640B8538Fd9A02A9783F8d3] = Transporter(\r\n            User(\r\n                commonMail,\r\n                commonPassword,\r\n                0xd3EF445Fc804e207F640B8538Fd9A02A9783F8d3,\r\n                commonCid,\r\n                \"Transporter\",\r\n                \"Activated\"\r\n            ),\r\n            transporterName,\r\n            transporterLicensePlate,\r\n            transporterCarCapacity,\r\n            commonLocation,\r\n            new uint[](0),\r\n            transporterRating\r\n        );\r\n        transporterAdd.push(0xd3EF445Fc804e207F640B8538Fd9A02A9783F8d3);\r\n        emit emettedEvent(0xd3EF445Fc804e207F640B8538Fd9A02A9783F8d3, \"Transporter added successfully\");\r\n\r\n        // Initialize Silo\r\n        silos[0x954fA63C60A3676507de18073c1fc69D0CA40876] = Silo(\r\n            User(\r\n                commonMail,\r\n                commonPassword,\r\n                0x954fA63C60A3676507de18073c1fc69D0CA40876,\r\n                commonCid,\r\n                \"Silo\",\r\n                \"Activated\"\r\n            ),\r\n            \"[33.8815, 10.0982]\",\r\n            siloCapacity,\r\n            siloQuantity,\r\n            new uint[](0)\r\n        );\r\n        emit emettedEvent(0x954fA63C60A3676507de18073c1fc69D0CA40876, \"Silo added successfully\");\r\n\r\n        siloAdd.push(0x954fA63C60A3676507de18073c1fc69D0CA40876);\r\n    }\r\n\r\n    modifier onlyOwner() {\r\n        require(\r\n            msg.sender == adminAddress,\r\n            \"Only the admin can call this function\"\r\n        );\r\n        _;\r\n    }\r\n    modifier onlyFarmer() {\r\n        require(\r\n            farmers[msg.sender].user.account != address(0),\r\n            \"Caller is not a farmer\"\r\n        );\r\n        _;\r\n    }\r\n\r\n    modifier onlyTransporter() {\r\n        require(\r\n            transporters[msg.sender].user.account != address(0),\r\n            \"Caller is not a transporter\"\r\n        );\r\n        _;\r\n    }\r\n\r\n    modifier onlySilo() {\r\n        require(\r\n            silos[msg.sender].user.account != address(0),\r\n            \"Caller is not a silo\"\r\n        );\r\n        _;\r\n    }\r\n    modifier onlyAuthorized() {\r\n        require(\r\n            farmers[msg.sender].user.account != address(0) ||\r\n                transporters[msg.sender].user.account != address(0) ||\r\n                silos[msg.sender].user.account != address(0)||\r\n                msg.sender == adminAddress,\r\n            \"Caller is not authorized\"\r\n        );\r\n        _;\r\n    }\r\n\r\n    function verify(\r\n        string memory email,\r\n        string memory pass\r\n    ) public view returns (string memory) {\r\n        if (\r\n            msg.sender == admin.account &&\r\n            keccak256(bytes(admin.mail)) == keccak256(bytes(email)) &&\r\n            keccak256(bytes(admin.password)) == keccak256(bytes(pass))\r\n        ) {\r\n            return admin.role;\r\n        }\r\n\r\n        if (\r\n            farmers[msg.sender].user.account != address(0) &&\r\n            keccak256(bytes(farmers[msg.sender].user.mail)) ==\r\n            keccak256(bytes(email)) &&\r\n            keccak256(bytes(farmers[msg.sender].user.password)) ==\r\n            keccak256(bytes(pass))\r\n        ) {\r\n            return farmers[msg.sender].user.role;\r\n        }\r\n\r\n        if (\r\n            transporters[msg.sender].user.account != address(0) &&\r\n            keccak256(bytes(transporters[msg.sender].user.mail)) ==\r\n            keccak256(bytes(email)) &&\r\n            keccak256(bytes(transporters[msg.sender].user.password)) ==\r\n            keccak256(bytes(pass))\r\n        ) {\r\n            return transporters[msg.sender].user.role;\r\n        }\r\n\r\n        if (\r\n            silos[msg.sender].user.account != address(0) &&\r\n            keccak256(bytes(silos[msg.sender].user.mail)) ==\r\n            keccak256(bytes(email)) &&\r\n            keccak256(bytes(silos[msg.sender].user.password)) ==\r\n            keccak256(bytes(pass))\r\n        ) {\r\n            return silos[msg.sender].user.role;\r\n        }\r\n\r\n        return (\"Invalid credentials\");\r\n    }\r\n\r\n    function addFarmers(Farmer[] memory farmer) public onlyOwner {\r\n        for (uint i = 0; i < farmer.length; i++) {\r\n            if (farmer[i].user.account == address(0)) {\r\n                emit ResponseMessage(address(0), \"Invalid user account\");\r\n                continue;\r\n            }\r\n            if (farmers[farmer[i].user.account].user.account != address(0)) {\r\n                emit ResponseMessage(\r\n                    farmer[i].user.account,\r\n                    \"User already exists\"\r\n                );\r\n                continue;\r\n            }\r\n            farmers[farmer[i].user.account] = farmer[i];\r\n            farmerAdd.push(farmer[i].user.account);\r\n            emit emettedEvent(farmer[i].user.account, \"Farmer added successfully\");\r\n\r\n        }\r\n    }\r\n\r\n    function addTransporters(\r\n        Transporter[] memory transporter\r\n    ) public onlyOwner {\r\n        for (uint i = 0; i < transporter.length; i++) {\r\n            if (transporter[i].user.account == address(0)) {\r\n                emit ResponseMessage(address(0), \"Invalid user account\");\r\n                continue;\r\n            }\r\n            if (\r\n                transporters[transporter[i].user.account].user.account !=\r\n                address(0)\r\n            ) {\r\n                emit ResponseMessage(\r\n                    transporter[i].user.account,\r\n                    \"User already exists\"\r\n                );\r\n                continue;\r\n            }\r\n            transporters[transporter[i].user.account] = transporter[i];\r\n            transporterAdd.push(transporter[i].user.account);\r\n            emit emettedEvent(transporter[i].user.account, \"Transporter added successfully\");\r\n\r\n        }\r\n    }\r\n\r\n    function addSilos(Silo[] memory silo) public onlyOwner {\r\n        for (uint i = 0; i < silo.length; i++) {\r\n            if (silo[i].user.account == address(0)) {\r\n                emit ResponseMessage(address(0), \"Invalid user account\");\r\n                continue;\r\n            }\r\n            if (silos[silo[i].user.account].user.account != address(0)) {\r\n                emit ResponseMessage(\r\n                    silo[i].user.account,\r\n                    \"User already exists\"\r\n                );\r\n                continue;\r\n            }\r\n            silos[silo[i].user.account] = silo[i];\r\n            siloAdd.push(silo[i].user.account);\r\n            emit emettedEvent(silo[i].user.account, \"Silo added successfully\");\r\n\r\n        }\r\n    }\r\n\r\n    function getFarmers() public view onlyOwner returns (address[] memory) {\r\n        return farmerAdd;\r\n    }\r\n\r\n    function getTransporters() public view  returns (address[] memory) {\r\n        return transporterAdd;\r\n    }\r\n\r\n    function getSilos() public view  returns (address[] memory) {\r\n        return siloAdd;\r\n    }\r\n\r\n    function addCid(string memory cid, string memory role) public onlyAuthorized{\r\n        if ((keccak256(bytes(role)) == keccak256(bytes(\"Farmer\")))) {\r\n            farmers[msg.sender].user.cid = cid;\r\n            emit emettedEvent(msg.sender, \"Farmer added a permit.\");\r\n        } else if ((keccak256(bytes(role)) == keccak256(bytes(\"Silo\")))) {\r\n            silos[msg.sender].user.cid = cid;\r\n            emit emettedEvent(msg.sender, \"Silo added a permit.\");\r\n\r\n        } else if (\r\n            (keccak256(bytes(role)) == keccak256(bytes(\"Transporter\")))\r\n        ) {\r\n            transporters[msg.sender].user.cid = cid;\r\n            emit emettedEvent(msg.sender, \"Transporter added a permit.\");\r\n\r\n        }\r\n    }\r\n\r\n    function changePassword(\r\n        string memory newPassword,\r\n        string memory oldPassword,\r\n        string memory role\r\n    ) public onlyAuthorized returns (string memory) {\r\n        if ((keccak256(bytes(role)) == keccak256(bytes(\"Farmer\")))) {\r\n            if (\r\n                keccak256(bytes(farmers[msg.sender].user.password)) ==\r\n                keccak256(bytes(newPassword))\r\n            ) {\r\n                return \"New password cannot be the same as the old one.\";\r\n            } else if (\r\n                keccak256(bytes(farmers[msg.sender].user.password)) !=\r\n                keccak256(bytes(oldPassword))\r\n            ) {\r\n                return \"Wrong old password!\";\r\n            } else {\r\n                farmers[msg.sender].user.password = newPassword;\r\n                return \"Password changed successfully!\";\r\n            }\r\n        } else if ((keccak256(bytes(role)) == keccak256(bytes(\"Silo\")))) {\r\n            if (\r\n                keccak256(bytes(silos[msg.sender].user.password)) ==\r\n                keccak256(bytes(newPassword))\r\n            ) {\r\n                return \"New password cannot be the same as the old one.\";\r\n            } else if (\r\n                keccak256(bytes(silos[msg.sender].user.password)) !=\r\n                keccak256(bytes(oldPassword))\r\n            ) {\r\n                return \"Wrong old password!\";\r\n            } else {\r\n                silos[msg.sender].user.password = newPassword;\r\n                return \"Password changed successfully!\";\r\n            }\r\n        } else if (\r\n            (keccak256(bytes(role)) == keccak256(bytes(\"Transporter\")))\r\n        ) {\r\n            if (\r\n                keccak256(bytes(transporters[msg.sender].user.password)) ==\r\n                keccak256(bytes(newPassword))\r\n            ) {\r\n                return \"New password cannot be the same as the old one.\";\r\n            } else if (\r\n                keccak256(bytes(transporters[msg.sender].user.password)) !=\r\n                keccak256(bytes(oldPassword))\r\n            ) {\r\n                return \"Wrong old password!\";\r\n            } else {\r\n                transporters[msg.sender].user.password = newPassword;\r\n                return \"Password changed successfully!\";\r\n            }\r\n        }\r\n    }\r\n\r\n    function changeStatus(\r\n        string memory status,\r\n        string memory role,\r\n        address userAddress\r\n    ) public onlyOwner {\r\n        if ((keccak256(bytes(role)) == keccak256(bytes(\"Farmer\")))) {\r\n            farmers[userAddress].user.status = status;\r\n        } else if ((keccak256(bytes(role)) == keccak256(bytes(\"Silo\")))) {\r\n            silos[userAddress].user.status = status;\r\n        } else if (\r\n            (keccak256(bytes(role)) == keccak256(bytes(\"Transporter\")))\r\n        ) {\r\n            transporters[userAddress].user.status = status;\r\n        }\r\n    }\r\n\r\n    function addTransportation (Transportation memory transportation) public onlyFarmer{\r\n        tid = tid + 1;\r\n        transportations[tid] = transportation;\r\n        transporters[transportation.transporter].transportations.push(tid);\r\n        farmers[transportation.farmer].transportations.push(tid);\r\n        silos[transportation.silo].transportations.push(tid);\r\n         emit emettedEvent(msg.sender, \"Farmer added a Transporation.\");\r\n\r\n    }\r\n\r\n    function changeTransportationStatus (\r\n        string memory status,\r\n        uint256 id\r\n    ) public  onlyAuthorized{\r\n        transportations[id].status = status;\r\n    }\r\n\r\n    function transportationHash(string memory hash, uint256 id) public onlyAuthorized {\r\n        transportations[id].ssiHash = hash;\r\n    }\r\n\r\n    function rateTransportation(uint8 rating, uint256 id) public onlyFarmer {\r\n        transportations[id].rating = rating;\r\n        transportations[id].isRated = true;\r\n        transporters[transportations[id].transporter].rating =\r\n            (transporters[transportations[id].transporter].rating + rating) /\r\n            2;\r\n    }\r\n    function getFarmerTransportations(\r\n        address farmerAddress\r\n    ) public view returns (uint256[] memory)  {\r\n        return farmers[farmerAddress].transportations;\r\n    }\r\n\r\n    function getTransporterTransportations (\r\n        address transporterAddress\r\n    ) public view returns (uint256[] memory) {\r\n        return transporters[transporterAddress].transportations;\r\n    }\r\n\r\n    function getSiloTransportations (\r\n        address siloAddress\r\n    ) public view returns (uint256[] memory) {\r\n        return silos[siloAddress].transportations;\r\n    }\r\n\r\n    function pickYield(string memory date, uint256 id) public onlyTransporter{\r\n        transportations[id].status = \"Picked\";\r\n        transportations[id].pickUpDate = date;\r\n        emit emettedEvent(msg.sender, \"Transporter picked a Yield.\");\r\n\r\n    }\r\n\r\n    function transportYield(string memory date, uint256 id) public onlySilo{\r\n        transportations[id].status = \"Transporter\";\r\n        transportations[id].deliviredDate = date;\r\n        emit emettedEvent(msg.sender, \"Silo validated a Yield.\");\r\n\r\n    }\r\n}",
  "sourcePath": "C:\\Users\\bouss\\Desktop\\PFE\\Solidity\\contracts\\Website.sol",
  "compiler": {
    "name": "solc",
    "version": "0.5.1+commit.c8a2cb62.Emscripten.clang"
  },
  "schemaVersion": "3.4.16",
  "updatedAt": "2024-06-22T17:38:17.709Z",
  "networkType": "ethereum",
  "devdoc": {
    "methods": {}
  },
  "userdoc": {
    "methods": {}
  }
}